:020000041000EA
:10000000002000083B0100100D0000009D010010C1
:1000100000000000000000000000000000000000E0
:100020000000000000000000000000009901001026
:10003000000000000000000099010010990100106C
:100040009901001099010010990100109901001008
:1000500099010010990100109901001099010010F8
:1000600099010010990100109901001099010010E8
:1000700099010010990100109901001099010010D8
:100080000448054B10B5834203D0044B002B00D02D
:10009000984710BD780300087803000800000000AE
:1000A00006480749091A8B10C90FC91810B549101D
:1000B00003D0044B002B00D0984710BD78030008F4
:1000C000780300080000000010B5074C2378002BCF
:1000D00009D1FFF7D5FF054B002B02D0044800E003
:1000E00000BF0123237010BDB00300080000000012
:1000F0006C150010054B10B5002B03D004490548C2
:1001000000E000BFFFF7CCFF10BDC04600000000BC
:10011000B40300086C1500100230800803D00130D1
:100120000238FCD1C046C0467047EFF3108072B66B
:10013000704780F3108870477047FFF7FDFF72B675
:100140000F4C104DAC4209DA21686268A368043B89
:1001500002DBC858D050FAE70C34F3E70A490B4ADF
:100160000020521A02DD043A8850FCDC0848094994
:100170000860BFF34F8F00F0F1FE00F09FFEFEE736
:100180007815001090150010B0030008C80500088D
:100190000000000808ED00E0FEE7FEE700B50420DF
:1001A0007146084202D0EFF3098002E0EFF30880C5
:1001B000043000F0A7FCFEE7014B18607047C04612
:1001C000CC030008044B1B681A00BA3212881B6A61
:1001D0005043C0187047C046CC030008A02300B5A8
:1001E0001B06984226D015D8802825D00AD810287A
:1001F00024D0402824D000280BD0154809E0A420A2
:10020000C00306E08022134B520090421CD098425B
:10021000F3D100BD104B984218D0104BC0180428E1
:10022000EBD800F039FFECEA0F0305000C48F0E7CB
:100230000C48EEE70020ECE70B48EAE70B48E8E75C
:100240000B48E6E70B48E4E71800E2E7A020D7E711
:10025000FF00520006005200090000A0FFFFFF0F40
:10026000020052000300520005005200010050003D
:10027000020050000100520010B50020FFF7A2FF5D
:100280000A4B1C682300BC331B68C0180368002B92
:100290000ADB074B1868FFF7A1FF012263689A6029
:1002A0009A68002AFCD110BD0248FCE7CC03000884
:1002B000D003000802005000064B1B68BC331B68CB
:1002C000C3181B68002B03DA89B241600020704715
:1002D0000148FCE7CC03000801008A000368002BFA
:1002E00004DA89B2C2608160002070470048FCE7F0
:1002F00001008A00064B1B68BC331B68C3181B68CF
:10030000002B03DAC36800200B6070470148FCE74C
:10031000CC03000801008A00024B1A68002A00D1B1
:1003200018607047E4030008F0B52C24154E4443D0
:1003300030681F000019FF241E0A26402740124C77
:100340001B0C256807602C6A46608360BA352D88CF
:100350006F433F190761370080377F01E7190B4D65
:1003600076014761A4191F043B43641923600023ED
:100370008361059BC2610162002B01D01B888381D0
:10038000F0BDC046E4030008CC03000808100000DC
:10039000F0B50400236987B0026841680393A3683D
:1003A00004AD1732C0682B806A80039BA26A059156
:1003B0000095E16A266A676AFFF7B6FF00213B00F5
:1003C0000A0030000091FFF7AFFF2800216B00F01A
:1003D0004DFB0022AB5E002B06DB1F2213401E3AB2
:1003E0009A401300014A136007B0F0BD00E100E03D
:1003F000F0B585B003931B4B16001C682C235843A3
:100400004B4320180769E418002F27D0A569002D59
:1004100026D13B68002B23DA134B1B6834331B783F
:100420000193436801996068029300F0C5FE0122C0
:100430008A40336812049BB2134333600123FE6089
:10044000A361039B01996362029800F0B5FE01234A
:100450008B409BB2BB60280005B0F0BD034DFAE7AE
:10046000034DF8E7E4030008CC03000804028A0007
:1004700007028A0073B5002642690400D568019618
:100480002B0CB34221D01B0413601368194B006975
:100490001B68BC331B68C3181B68B34215DA01A97B
:1004A000FFF728FFB0420CD10198E26903681E0CE7
:1004B000DBB29A4205D9226A9B009B58002B00D0E0
:1004C000984731002069FFF7F7FEADB2002D09D043
:1004D00063691D6000251B68636AAB4205D09847BD
:1004E0006562A56163691B6873BDA36A002BF8D0C0
:1004F0009847F6E7CC0300082C2310B54343034A82
:100500001068C018FFF7B6FF10BDC046E40300082E
:100510001A4B70B51A680C00130033331B788342F2
:100520002AD9002928D00D681F212B000B400D422D
:1005300022D11100BA310988126A48431900104DBE
:100540008018286022685209934210D30021FFF7D7
:10055000B3FE002122002868FFF7C0FE011E04D16F
:100560002868FFF7A9FE002800D0064870BD626821
:100570009E00B1500133E5E70348F7E7CC030008DC
:10058000E803000801018A0003018A000B0010B58E
:10059000002A0DD1002914D10B4A0C4C11680A0015
:1005A000BA321288096A424352182260180010BDFC
:1005B000002906D006490B604A60FFF7A9FF030037
:1005C000F4E7044BF2E7C046CC030008E803000858
:1005D0007803000803018A00F7B51B4F04003B684D
:1005E0000E00002B2BD0DB681A68824229D9002527
:1005F0005B680193A94202D1FFF797FD05003868B7
:100600000368002B19DA1F23012223409A40640952
:10061000019BA4001C1921680A420CD0914321605F
:1006200000240021FFF748FE002E02D12800FFF72A
:1006300080FD2000FEBD054CF3E7054CF4E7034CBC
:10064000F7E7044CF5E7C046E8030008020188001C
:100650000301880004018A000C4B1B68002B11D099
:10066000DB681A6882420FD959681F234209184073
:100670001E3B8340920050581840431E9841044B43
:10068000C01870470348FCE70348FAE7E80300088E
:10069000000188000201880004018A00054B1B68E4
:1006A0001A0088321B6812689B181868000AC0B2CA
:1006B0007047C046CC030008044B1B681A00883200
:1006C0001B6812689B181868000E7047CC0300085E
:1006D000034BE0308000C0588006800F7047C04652
:1006E00000002640024B18694007C00F7047C04603
:1006F00000002740A6220549D2008B580220DB4388
:100700009B0702D0012388581840704700002640FC
:1007100010B5FFF7EFFF0023022801D1014B1B6842
:10072000180010BDF0030008084A83009B18D0226F
:100730009200985807221040042806D1C022920047
:100740009B581F22FC30134018437047000026407E
:1007500010B5FFF7E9FF88235B0098421CD00BD847
:10076000012813D0022814D0431E9841104B404258
:100770001840104BC01810BD1223FF33984210D000
:100780001423FF33984210D00020F4E70A4B186876
:10079000F1E7FFF7BDFFEEE7084A094BD058C00F5D
:1007A00001E0FFF79FFFC003E5E7044A054BF5E7CB
:1007B00000EE85FF00127A00EC03000800002640DE
:1007C0000C0500003C050000B023154ADB00D3589F
:1007D00010B59903DB01DB0F890BC371114B01606D
:1007E000D3580F24D904DB01DB0D0381B123DB00D7
:1007F000D358C90C81801900214081721909214008
:10080000C172D9029B009B0F8373074BC90CD3584D
:1008100081815A05DB01520FDB0D8271038210BD0D
:1008200000002640840500008C0500008030034B4A
:10083000FF308000C058C00F7047C04600002640FF
:100840000F4B421E1B683F331B78934216D98030F2
:100850007F220C4BFF308000C3581F201A400A70C3
:100860001A0A02404A701A0C02408A701A01C240E9
:1008700000209B009B0FCA700B7170470248FCE779
:10088000CC0300080000264001004A00F0B589B002
:1008900003AD2800FFF798FFB0230026164ADB00BF
:1008A000D358B34224DAAB7B022B21D0AC88B442BC
:1008B0001ED03000ED79039FFFF74AFF220033007E
:1008C00031000190681C00F09DFC0C000500330015
:1008D0003A003100019800F095FCE6076A083243BF
:1008E0006308801859412A00230000F06BFC0600C1
:1008F000300009B0F0BDC04600002640F7B5234BDC
:1009000006001B683F331B78002B08D000283BD023
:10091000834204D36946FFF793FF041E01D00026EB
:1009200032E03000FFF782FF2300002805D06B463D
:100930001C79023C23005A1E93416A46177854786A
:100940009578002BEBD0002CE9D0002DE7D03000BB
:10095000FFF7FEFE002306002A002000190000F029
:1009600051FC00230C0005003A003000190000F093
:1009700049FCE6076A0832436308801859412A0097
:10098000230000F01FFC06003000FEBDCC03000871
:1009900010B5041E04D1FFF779FF002806D008E047
:1009A000064B1B683F331B78834203D22000FFF7BE
:1009B000CFFE10BDFFF7A2FFEFE7C046CC03000853
:1009C00070B50500FFF784FEE035074BAD0004006D
:1009D000E8580F231840FFF7DBFF0123A3405B0813
:1009E0001818E04070BDC04600002640144B30B5DA
:1009F0001B6807241A002C3212781F2A15D8820887
:100A00001500A5432C1E0FD103342040A040814087
:100A10001B68920020339B180A00FF2181401C684C
:100A2000624011406140196030BD1A688023204047
:100A30001B06034380208001091889008B50F3E7CF
:100A4000CC030008064B10B59A68064C10308300A2
:100A5000A24202D19858995010BD034AD058FBE7E2
:100A600000ED00E00000000800000010F8B50700ED
:100A70000E0000283AD00023C45E002C28DB4188F9
:100A80002000FFF7B3FF0025FF22032094462040FB
:100A90007968C0006746824089013940D24381406D
:100AA000A3B2002C16DB1248A3089B001B18C02021
:100AB00080001F583A400A431A500E4B9A680E4B5A
:100AC0009A4203D131002000FFF7BCFF2800F8BD97
:100AD0000A4DD9E70F200340083B06489B089B00BE
:100AE0001B18D86902400A43DA61E6E7034DEDE7D7
:100AF00000E100E000ED00E0000000080100560009
:100B0000FEE7000002680A4B10B51A6042685A609E
:100B100082689A60C268DA6002691A6142695A6141
:100B200082699A61C269DA61FFF7EAFF10BDC046C7
:100B300090030008B0235B055A782120002A01D0D9
:100B40005878C0B27047B0235B059A89002A02D05A
:100B5000988980B2704780204000FBE7254B73B531
:100B600086000D00F458042901D0012925D1002068
:100B70000EE0A3682B420AD1E36829001A685B687B
:100B8000684601930092236898471B4B1C60646978
:100B9000002C0AD0194B9842EBD1012DE9D1164A0D
:100BA000174B126815489A5176BD012DFCD1134B95
:100BB0009842F4D0124B9C51F6E7022914D026003B
:100BC0006469002CFBD10020002EEDD0B3682B42CD
:100BD00008D1F36829001A685B686846019300929F
:100BE000336898473669EFE7034B1B68181EDBD064
:100BF0001E69E8E73404000830040008FF004200E2
:100C00001C0400081A4B1B68190088311A6809680F
:100C100051180968016219008C310968521812686C
:100C200042621A0046321278002A1FD09A68E032D7
:100C30001268D2061AD5F222DB68D2019A580260F5
:100C4000F022D2019A5842600A4A9A5882600A4AAF
:100C50009A58C260094A9A580261094A9A584261F0
:100C6000084A9A588261084A9B58C3617047C04637
:100C7000CC03000804780000087800000C7800001D
:100C80001078000014780000187800001A4B1B68D8
:100C90001900883109681A685218016A1160190030
:100CA0008C3109681A685218416A11601A0046327C
:100CB0001278002A1ED09A68E0321268D20619D53E
:100CC000F0224168DB68D201995081680B4A995043
:100CD000C1680B4A995001690A4A995041690A4A08
:100CE00099508169094A9950C169094A9950016826
:100CF000E83299507047C046CC03000804780000E1
:100D0000087800000C7800001078000014780000CB
:100D100018780000F7B50500FFF70CFF564F01905B
:100D20007B68002B00D06FE0FFF7FFF97B68009035
:100D3000002B00D07CE0514B07271C682300BA33FE
:100D40001B885F43236AFB181A68002AFCDADB68F9
:100D5000DA001ED51B0F4A481E07FFF753FF22007B
:100D600088321268236847499B181A6801980A401C
:100D7000212862D19020000102431A6022008C32A7
:100D8000126823689B181A680A40104318603C4B8D
:100D90003343802292051343226A0024BF18FB606C
:100DA0007C607B68FFF7CFFE8023344F5B00984266
:100DB00046D1280000F058FB3F6807223B00BA33B9
:100DC0001E883B6A5643F3181A68002AFCDADD686D
:100DD000EB0003D528010009FFF758FF00222A4B3A
:100DE00000981D403B6AF318DD605A60FFF7A1F9D7
:100DF000002C10D1204B5B68002B03D00821012070
:100E0000FFF7ACFE2000FEBD01210800FFF7A6FEA3
:100E1000041E00D188E7184B5B68002B03D0022129
:100E20000120FFF79BFE194B9C42EBD0184CE9E7E1
:100E300004210120FFF792FE7DE7802040009BE720
:100E40003B681A00BC32196A1268521811680029EE
:100E500010DBBA331B889B181B68002B0ADB0423AA
:100E60000C4A11690B431361012D01D030BFA3E778
:100E700020BFA1E7054C9FE734040008CC0300081D
:100E8000F4030008FF00FFFFFFFFFFDF0500420043
:100E9000FF00420000ED00E0C02280200649520021
:100EA0008B58C0059B009B0803438B5080238858B8
:100EB0001B0603438B5070470000264010B562B6F6
:100EC000034800F0C3F80020FFF724FFFBE7C0460B
:100ED0000020001010B50020FFF70EFB10BD70477A
:100EE00070B50020FFF76CFD041E28D0144B18606D
:100EF000FFF7E2FB411C200000F0D8F8114B040082
:100F00001860FFF7CBFB411C200000F0CFF8040075
:100F10000D4B013C18600D49200000F0C7F8FA2184
:100F20000B4D013028708900200000F0BFF8094DFA
:100F3000013028600020FFF743FD074B186070BDAB
:100F4000880000088C0000088000000840420F0064
:100F500094000008900000088400000810B52048A4
:100F6000FFF72AF9B022E02130201E4CD200A3580E
:100F700089005B005B08A350635883436350802360
:100F80005B04A350184B194AE250A022043392018B
:100F9000E250FF22164BE250FFF77EFFC0220121F4
:100FA0005200A3588B43A350FFF799FFFFF798FF18
:100FB000104B03201A681300BA33198807234B43D8
:100FC000126A80219B180022DA605A600A4AFFF7F1
:100FD000DDFA0A48FFF7A0F90948FFF7D9F910BD73
:100FE0007814001000002640840500000100020073
:100FF0008C050000CC0300088003000848040008AA
:10100000381500109023034A5B01D0580323184081
:101010007047C0460000204010B59024FFF785F8C7
:10102000074B64011959074A1140074A0A431A51EC
:10103000102259681142FCD0FFF77BF810BDC04662
:1010400000002040FCFF00000100FA05F8B59026E2
:101050000E4C76010700FFF768F8A3590500DB4343
:101060009B0701D1FFF7D8FF80239B00E750A259CF
:10107000074B1A40074B1343A351102362681A42CF
:10108000FCD02800FFF755F8F8BDC046000020400E
:10109000FCFF00000300FA0502B47146490849004C
:1010A000095649008E4402BC7047C04600224308DE
:1010B0008B4274D303098B425FD3030A8B4244D320
:1010C000030B8B4228D3030C8B420DD3FF22090262
:1010D00012BA030C8B4202D31212090265D0030B21
:1010E0008B4219D300E0090AC30B8B4201D3CB0317
:1010F000C01A5241830B8B4201D38B03C01A524159
:10110000430B8B4201D34B03C01A5241030B8B425A
:1011100001D30B03C01A5241C30A8B4201D3CB0245
:10112000C01A5241830A8B4201D38B02C01A52412A
:10113000430A8B4201D34B02C01A5241030A8B422D
:1011400001D30B02C01A5241CDD2C3098B4201D345
:10115000CB01C01A524183098B4201D38B01C01AC3
:10116000524143098B4201D34B01C01A524103093A
:101170008B4201D30B01C01A5241C3088B4201D3E9
:10118000CB00C01A524183088B4201D38B00C01A96
:10119000524143088B4201D34B00C01A5241411ABD
:1011A00000D20146524110467047FFE701B50020CA
:1011B00000F006F802BDC0460029F7D076E7704778
:1011C0007047C046002B11D1002A0FD1002900D151
:1011D000002802D00021C943080007B4024802A138
:1011E0004018029003BDC046D9FFFFFF03B4684614
:1011F00001B5029800F034F8019B9E4602B00CBC89
:101200007047C046F0B5CE469946030C9C46130481
:1012100047461B0C1D000E0061460404240C80B5DB
:101220000700100C4B436543414360432C0CC0182E
:1012300020188C46834203D980235B029846C4441D
:10124000494679435643030C2D042D0C89196344F8
:1012500000044019C918C0BCB946B046F0BDC0462C
:10126000F0B557464E464546DE46E0B504000D0053
:101270009246994683B08B4230D82DD0494650468D
:1012800000F0D8F829000600200000F0D3F8331A47
:101290009846203B34D49B4653465A469340424698
:1012A0001F00534693401E00AF423BD8AF4200D1CF
:1012B00079E05B46A41BBD41002B00DA76E00022FA
:1012C00000230092019301235A4693400193012386
:1012D00042469340009329E08242CFD90022002366
:1012E000009201930C9B002B01D01C605D60009864
:1012F000019903B0F0BCBB46B246A946A046F0BD7A
:1013000042469B4620239B1A5246DA404146130030
:101310004A468A40170042461F43534693401E00E8
:10132000AF42C3D900220023009201934346002B11
:10133000D8D0FB0772081A4346467B080EE0AB4242
:1013400001D1A2420CD8A41A9D41012024196D415B
:101350000021013E24184D41002E06D0AB42EED9AB
:10136000013E24196D41002EF8D1009801995B4689
:1013700000196941002B24DB2B005A464446D34018
:101380002A00E2401C005B461500002B2ADB2600E9
:101390009E40330026004746BE403200801A9941E5
:1013A000009001919EE7A342BCD882E742462023E9
:1013B00000219B1A0022009101920122DA40019241
:1013C00085E7424620239B1A2A0046469A4023007E
:1013D000F340444613432A00E2401C005B461500DC
:1013E000002BD4DA42462F002023260097409B1A78
:1013F000DE403B003343CDE71C2101231B04984210
:1014000001D3000C10391B0A984201D3000A083995
:101410001B09984201D30009043902A2105C40184C
:101420007047C046040302020101010100000000F0
:101430000000000010B5002903D1FFF7DDFF2030C8
:1014400002E00800FFF7D8FF10BDC046F8B5C0465F
:10145000F8BC08BC9E467047F8B5C046F8BC08BC4E
:101460009E4670470000000001B40248844601BC5B
:10147000604700BF610200080000204000002440D7
:101480000000004000000000000023400000304049
:101490000000314000009F4000002240000010404A
:1014A00000009D402020202020101010101D1D80C5
:1014B00017007500FF030602060036041020000026
:1014C0007FC0000000040000000000000019324B43
:1014D000647D0000000000804000080B1000000048
:1014E0000000FF012002001F00800004FF08101808
:1014F000001000140018001C4044484C500000002C
:1015000008100000080000000400000004100000A3
:10151000001200000421000000210000001600005D
:1015200040114002C41300138013A013401388130A
:10153000A81320001C0000000300000001000000B0
:10154000010000000000000005036000040000002E
:10155000010000000000000001000000060460001F
:1015600008000000A8050008D50E001000000000CB
:10157000F0FCFF7F010000000000001000000008E8
:10158000800000009815001080000008F80200009C
:10159000B00300081802000000093D0000093D00EA
:1015A00000127A0000093D00A00F000004000000B6
:1015B000F5000010C900001080B230B5C40000284A
:1015C00020D0114B18680300BA331A8807235343FD
:1015D000026A9A1811680029FCDA3E210B4A062596
:1015E00011600B4A0B491160A3210B4AC9005550E9
:1015F0000A495450006A54581B1800205860535828
:10160000002BFCDA30BDC046CC03000804012640A4
:10161000080126401E1F0000000026401C05000097
:1016200010B54378FF2B11D100F002F9040003201C
:1016300000F0E6F80121C3685B681A680A431A6083
:101640001A680A42FCD1200000F01AF910BDF7B563
:1016500007000020019100F0D3F83E4C05002368FC
:101660001A005033BC3216681B788619002B59D0EB
:1016700000F0EEF8009003281AD000F0D9F8364AAE
:10168000364B0400D358002B3CDA01212800344AA1
:1016900000F0BEF8002835D10198FFF78DFF002F2C
:1016A0003ED03368002BFCDB00F0DAF805002AE0BE
:1016B000062000F0A5F82368BC331B68C018036837
:1016C000002B02DA274D2800FEBD002000F0B8F8FC
:1016D000254B9842F6D00023244A190001201268B5
:1016E00000F09EF8041EEDD1002000F0A9F81E4A7B
:1016F0001F4B904203D09C42E4D00134F4E79C425B
:10170000BBD1DFE7174D009B032B05D10121002042
:1017100000F0AEF80028F9D1200000F0B1F8D2E7CF
:10172000144DF0E700F084F8012104000C4A280071
:1017300000F06EF8002808D1002F08D03368002B85
:10174000FCDB00F08DF80500E6E7064DE4E7094D07
:10175000E2E7C046CC030008000026401C0500005C
:10176000D00300080500520001018800E0030008D2
:10177000F049020001005000184BF7B51B681849EA
:101780005A6804230C6923430B61012824D030BF1D
:101790001300FC331B69002B1DD1A324114B1248ED
:1017A0001249E40007681E590D680195104D056047
:1017B00006251D513E240C600E4C3E351D511D5911
:1017C000002DFCDA0C4CFC321461A322D20007601D
:1017D0009E50019B0B60F7BD20BFD9E7CC030008EA
:1017E00000ED00E0000026400801264004012640EC
:1017F0001E1F00001C050000AAAAAAAA00000000E3
:1018000001B40248844601BC604700BFC501001016
:1018100001B40248844601BC604700BFDD020010ED
:1018200001B40248844601BC604700BFF1030010C8
:1018300001B40248844601BC604700BF2B01001080
:1018400001B40248844601BC604700BF590600103D
:1018500001B40248844601BC604700BF0510001077
:1018600001B40248844601BC604700BF7902001001
:1018700001B40248844601BC604700BFD90500108E
:1018800001B40248844601BC604700BF3301001028
:101890000000000000000000000000000000000048
:0818A000000000000000000040
:1020000000F80F08712300100D000000E5230010F8
:10201000E5230010E5230010E52300100000000078
:10202000000000000000000000000000C16F001070
:10203000E12300100000000061700010616F0010CB
:10204000E1230010E1230010E1230010E123001040
:10205000E1230010E1230010E1230010E123001030
:10206000E1230010E1230010E1230010E123001020
:10207000E1230010E1230010E1230010E123001010
:1022E0000348044B834202D0034B03B118477047A5
:1022F000102B0008102B0008000000000548064BBA
:102300001B1AD90F01EBA301491002D0034B03B1F3
:1023100018477047102B0008102B00080000000021
:1023200010B5064C237843B9FFF7DAFF044B13B11D
:102330000448AFF300800123237010BDFC2B00087C
:102340000000000074B50D1008B5054B1BB1054920
:102350000548AFF30080BDE80840FFF7CFBF00BFDE
:1023600000000000002C000874B50D107047704785
:10237000FFF7FCFF72B6144C144DAC4209DA216829
:102380006268A368043BA2BFC858D050FAE70C3477
:10239000F3E70F490F4A00209142BCBF41F8040BFC
:1023A000FAE70D480D490860BFF34F8F00F084F83D
:1023B00000F068F803F0C1FE5BF0CAFB00F094FA8D
:1023C0005BF0EAFBFEE7000080B50D1098B50D103C
:1023D000FC2B0008A00F01080020000808ED00E019
:1023E000FEE7FEE700B504207146084202D0EFF395
:1023F000098002E0EFF30880043046F061FBFEE75D
:1024000008B5012041F07CF808BD704710B50020E8
:1024100046F002FA00B910BD0446124B186045F0B0
:102420005BF90130B4FBF0F00F4B186045F06CF92C
:102430000130B4FBF0F40D4B1C60013C0C4BA3FBD2
:1024400004239B0C01330B4A13700B4BA3FB043486
:10245000A4090134094B1C60002046F0DDF9084B4B
:102460001860D8E7E8220008EC220008E022000803
:1024700083DE1B43F4220008D34D6210F0220008D3
:10248000E422000808B509483FF070F8FFF7BDFFE7
:10249000FFF7BCFF00221146032041F08DF80448ED
:1024A00040F0D0FE034840F02FFF08BDDCF10610DD
:1024B000182C000840090610EFF3108172B6074A85
:1024C000D2F8883043F47003C2F88830BFF34F8FDE
:1024D000BFF36F8F81F31088704700BF00ED00E0FD
:1024E00008B500F0CBF800F00FF800F0BDF800F0F0
:1024F00047F800F04DF808BD08B500F0ABF900F062
:102500002DF800F05FF808BD08B50F21012044F058
:102510006FFF00220F21012044F0DCFD0F2101207C
:1025200044F024FF0021084644F062FFFF2200210E
:10253000084644F0CFFD0021084644F017FF07216C
:10254000002044F055FF00220721104644F0C2FD50
:102550000721002044F00AFF08BD000008B5054827
:102560003BF06CFB04483BF069FB04483BF066FB26
:1025700008BD00BF7C090610740906107809061012
:1025800008B5002211462F2044F0B4FE08BD00001B
:1025900010B5084C084A0421204640F05DFD074A6A
:1025A0000621204640F058FD054A0721204640F00C
:1025B00053FD10BD000331401C0A0610E40906104B
:1025C000AC09061008B518483BF038FB17483BF03B
:1025D00035FB17483BF032FB16483BF02FFB164803
:1025E0003BF02CFB15483BF029FB15483BF026FB44
:1025F00014483BF023FB14483BF020FB13483BF00E
:102600001DFB13483BF01AFB12483BF017FB124826
:102610003BF014FB11483BF011FB11483BF00EFB63
:1026200010483BF00BFB08BD540A0610580A061070
:10263000A8090610500A0610180A0610E00906102C
:102640008009061084090610880906108C090610F6
:102650009009061094090610980906109C090610A6
:10266000A0090610A4090610024B33229A601A61D1
:10267000704700BF00203040FEE7000030B583B057
:1026800007220021322044F035FE9621002046F03A
:1026900069FA46F0F9F9C0B9664BD3F8004F04F077
:1026A0003F0446F0E1F930B1012046F0D3F9624B26
:1026B0009B6C002B26DB5F4BC3F8004F45F01AF9EB
:1026C00045F006F9012045F029F9012046F09CFF6C
:1026D00046F042FF47F01CF847F006F845F04CFA88
:1026E0000021084645F094F8002044F0FFFF012047
:1026F00044F0E4FF002044F0F7FE504B1B6893F8D1
:102700003F4006E00620FFF7B7FF204645F01AFDE0
:10271000013C002CF9D10021012045F079F900207D
:1027200045F064F800286BD00021084645F070F9A8
:102730000021084645F03AF8414D00240094234614
:1027400022462146284640F087FB00942346224635
:102750000121284640F080FB3A4845F093F80028D4
:1027600059D1012044F092FF002044F0BFFF002027
:1027700044F0A4FF002044F0B7FE0021012045F002
:1027800047F90021084645F043F90021022045F0B1
:102790003FF90021032045F03BF90021042045F0DA
:1027A00037F90021052045F033F9274845F0FEF9B7
:1027B000A0BB264845F054FC98BB0021084644F0D5
:1027C000F5FF0021084645F023F82149012045F096
:1027D000DFFC48BB42F21071012045F001FE30BB26
:1027E000002044F0EBFE45F073F8012045F096F828
:1027F0006421002046F0B6F9FFF708FE03B030BDB3
:1028000045F034F940F2111398428DD10121002096
:1028100044F0CCFF88E70520FFF72EFF0420FFF7E8
:102820002BFF0420FFF728FF0320FFF725FF0320DD
:10283000FFF722FF00F02740000027403C0401087A
:102840000000314040420F005C0A0610400D0300BA
:10285000880A061008B509483BF0F0F908483BF033
:10286000EDF908483BF0EAF907483BF0E7F907487B
:102870003BF0E4F906483BF0E1F908BD700A0610A8
:10288000740A0610780A06107C0A0610800A0610E0
:10289000840A061008B5044846F0E6FA08B100209C
:1028A00008BD0248FCE700BFF8220008000002064D
:1028B00010B53BF0C1F9044638B154B1FFF710FE32
:1028C000FFF71AFE5CB1204610BD3DF0C1FD044685
:1028D000F3E740F6E44100203DF078FEEEE7FFF735
:1028E000D9FF0446EFE7704710B582B0FFF7E0FF6D
:1028F00000B101BE62B64FF4E1330093FF231A46E4
:102900002821292047F096F80E4859F079FF0E4803
:1029100059F0DCFF0D4859F0D9FF0D4859F0D6FFAA
:10292000002401940223009323464FF400620949D6
:10293000094805F0E9FB05F01FFC01BE204602B086
:1029400010BD00BF900A06109C0A0610DC0A061093
:10295000040B0610480B0610712D001010B582B044
:1029600038F01EFD00282ED11F4A136843F00403DF
:1029700013604FF4007004F093FC1C4B186048B3D4
:10298000194A136843F008031360194B0193194B5C
:102990000093194B194A12684FF4007139F0D8FAB4
:1029A0000446E8B9104A136843F01003136000228C
:1029B00013490F4B186839F04BFA044638B91148DF
:1029C00059F084FF03E004460F4859F07FFF20468A
:1029D00002B010BD0D4859F079FF4FF0FF34F6E713
:1029E0000B4859F073FFF2E7B02D0008A82D00083E
:1029F000A42D0008940B061014230008A02D000835
:102A0000152A0010E80B06106C0B0610A40B06101C
:102A1000C80B061084B000B583B005A880E80E008E
:102A20009DF81430D3B1012B21D1134A136823F040
:102A300020031360114859F049FF02238DF8073035
:102A400000234FF0FF320DF107010D48006804F03C
:102A5000EBFC03B05DF804EB04B07047064A136862
:102A600043F04003136007A800F0A8FBF1E7054816
:102A700059F02CFFEDE700BFB02D0008140C061034
:102A8000AC2D0008440C061030B5A5B04AF00CFC83
:102A900018B10025284625B030BD7822002106A8AF
:102AA0005AF0AEF8244B93E8030006908DF81C1002
:102AB00006A9224859F0A4FE00242546772C32D8D6
:102AC00001A906A84AF0C0F9054668B1C4F1770328
:102AD00041F2883201461A4859F092FE41F288309C
:102AE00005F04EFD0134E9E706A9164859F088FEC5
:102AF000154A136843F0020313609DF80430042B59
:102B000009D0062BC6D102A810F0CAFC01460F4816
:102B100059F076FEBEE702A80EF0E2FD01460C4831
:102B200059F06EFEB6E70B4859F0D0FE0A210A486C
:102B300059F066FEAEE700BF700C0610780C061068
:102B4000FC0C0610940C0610B02D0008E00C0610CA
:102B5000C40C06104C0D06107C0D061010B5044672
:102B600003F008FA0346064A1821204659F0B6FE3B
:102B7000002801DB002010BD4FF0FF30FBE700BF55
:102B8000B40D061070B588B002AC304D0FCD0FC437
:102B90002B6823800023CDF81A30ADF81E3002A830
:102BA000FFF7DCFF054688B9294E02AC34602046A9
:102BB0005BF07CF881B2B180264B1A6800929B884A
:102BC0002246254859F01CFE2C4617E0234859F0B0
:102BD0007DFE2FE01E49224B186838F03BFC05466D
:102BE00000B3C4F195034FF4FA6201461D4859F051
:102BF00007FE4FF4FA6005F0C3FC0134952C1CD895
:102C00004AF052FB0028E5D1174859F05FFE174AF9
:102C1000136823F002031360FFF736FF0546002810
:102C2000D8D007E0124859F051FE104A136843F01B
:102C300020031360284608B070BD0E4859F046FEC8
:102C400005210D4859F0DCFDF4E700BF8C12061099
:102C50001C23000814230008CC0D0610FC0D0610E0
:102C6000A42D0008B40E0610400E0610B02D00086A
:102C7000940E06100C0F0610380F061008B52F4BD7
:102C80001B6813F0200F19D12C4B1B6813F0100F89
:102C900021D12A4B1B6813F0080F29D1274B1B6841
:102CA00013F0040F29D1254B1B6813F0020F2FD10D
:102CB000224B1B6813F0010F35D108BD204B18685B
:102CC00038F0C4FF18B91F4859F000FEDCE71E4871
:102CD00059F0FCFDD8E71A4B186839F003F818B919
:102CE0001A4859F0F3FDD4E7194859F0EFFDD0E741
:102CF000184B186804F0E4FAD0E739F05DF818B919
:102D0000154859F0E3FDCEE7144859F0DFFDCAE756
:102D10004AF040F818B9124859F0D8FDC8E71148F0
:102D200059F0D4FDC4E74AF023FC18B90E4859F015
:102D3000CDFDC2E70D4859F0C9FDBEE7B02D000832
:102D4000A42D00086C0F0610940F0610C00F06107B
:102D5000EC0F0610A82D00081410061030100610F5
:102D60005810061078100610A0100610C410061097
:102D700010B586B000228DF808200121032004F050
:102D8000A9FF524B186002A849F016FE08BB504A32
:102D9000136843F0010313604E4859F097FDFFF7A5
:102DA00073FEC8B9FFF7DAFDB0B9FFF7EBFE98B9CB
:102DB000494B01930223009300234FF4806247495B
:102DC000474805F0A1F901281DD0464859F07EFD7D
:102DD00002E0454859F07AFD444859F077FD3E4BF2
:102DE000186808B106F008F8414B186808B106F0F9
:102DF00003F8FFF743FF3F4859F068FD002005F056
:102E0000FBFF06B010BD4FF4FA6005F0B9FB384B7C
:102E100001930223009300234FF480623649374820
:102E200005F072F9012803D0354859F04FFDD3E77A
:102E30003448FFF758FD1BE0334859F047FDFFF7D2
:102E4000A1FE0028C8D100248DF8144023464FF07D
:102E5000FF3205A92D48006804F0E6FA8DF80C4011
:102E600023464FF0FF3203A92948006804F0DCFA3A
:102E70004FF0FF320DF11701144B186804F0A8FC55
:102E80000128F5D19DF81730022BF1D101238DF8DF
:102E90000C3000234FF0FF3203A91D48006804F0F6
:102EA000C3FA1C4B186838F0D1FE4AF0FDF900282F
:102EB000C2D1074A136823F002031360164859F081
:102EC00005FDFFF7E1FD0028B6D085E7AC2D000831
:102ED000B02D00081C110610BC2D0008441106106E
:102EE0003131001054110610E8100610301206108F
:102EF000B42D0008601206107C110610E52F00109A
:102F00008C110610B01106100C120610C02D00080E
:102F1000B82D0008A42D0008E811061000B585B0F2
:102F20000023039302238DF804300F4B1B68BBB9B9
:102F30000E4B0293002303AA01A90D48006804F078
:102F400059FB039B4BB14FF0E0234FF08052C3F885
:102F5000042DBFF34F8FBFF36F8F05B05DF804FBF7
:102F6000044B0293E6E700BF60230008A41206109A
:102F7000B82D0008B012061008B501230222002166
:102F800004203AF0EFFB094904203AF057FC0123F2
:102F90000322022104203AF077FC054B5B68054AC6
:102FA0000549064859F02CFC08BD00BF3C23000829
:102FB0004C230008A4120610B0120610B812061016
:102FC00008B5074904203AF039FC00230322022106
:102FD00004203AF059FC04203AF022FD08BD00BF5D
:102FE0003C23000830B585B0FFF7C6FF002208215A
:102FF000032004F06FFE204B186001E0FFF7E0FFB4
:103000004FF0FF3202A91C4B186804F0E1FB0128C5
:10301000F6D19DF80830012BF0D0022B04D0002B04
:10302000EED1FFF7A9FFEBE7039D144CE5602846BE
:103030005AF03CFE206162682946114859F0E0FBD5
:103040002146104B186838F005FB014618B90E48A8
:10305000FFF749FCD4E70D4859F0D2FB01238DF866
:10306000073000234FF0FF320DF1070108480068D8
:1030700004F0DAF9EBE700BFB82D00084C23000894
:1030800000130610A42D0008681306103013061054
:10309000AC2D000830B583B00024254604E04FF481
:1030A0007A7005F06DFA0134022C0ED80122114914
:1030B000114B186838F0CEFB05460028EFD10D4BB8
:1030C0005A6819890D4859F09BFB0DB903B030BD02
:1030D000032229460A4859F093FB00238DF8073054
:1030E0004FF0FF320DF107010648006804F09CF92B
:1030F000ECE700BF64230008A42D0008B0130610FD
:10310000EC130610AC2D000808B501220549064B4A
:10311000186838F0C3FC00B908BD0146034859F0EF
:103120006FFBF9E764230008A42D00082C14061097
:1031300000B583B00123022219466F203AF012FB3A
:10314000FFF7A8FF00220221012004F0C3FD174B66
:10315000186001E0FFF7D8FF4FF0FF3201A9134BD1
:10316000186804F035FB0128F6D19DF80430012BD6
:10317000F0D0022B04D0002BEED1FFF78BFFEBE752
:103180009DF805200A4B1B689869003A18BF012278
:10319000072100F5D0603FF0BFFE9DF80520054BEC
:1031A0001A600548FFF79FFBD6E700BFC02D000857
:1031B0003C040108602300086414061030B585B093
:1031C000C56804690195009490F90030426801894E
:1031D000174859F015FB02238DF80C30072C17D037
:1031E000082C20D122462946124859F01EFDD0B99C
:1031F00001238DF80D301048FFF775FB00234FF0C9
:10320000FF3203A90D48006804F00EF905B030BD87
:10321000224629460A4859F008FD0028E0D100233B
:103220008DF80D30E7E7074859F050FBEEE700BF97
:1032300090140610A412061048150610C02D0008A0
:10324000B01206100C1506100230800803D00130B1
:103250000238FCD100BF00BF7047EFF3108072B698
:10326000704780F310887047B0F1FF3F22D008B359
:1032700038B5C50E43011B1A65F10005AD0045EADE
:1032800093759B001B1845F10005ED0045EA537549
:10329000DC004FF47A7200232046294656F064FF82
:1032A0006FF47A73A34240F2E733AB4101D26FF07F
:1032B000010038BD704708B53DF086F9002008BD13
:1032C000034B0360034B0B6080231360704700BF08
:1032D000DC330008DC2D0008034B0360034B0B605C
:1032E0004FF4807313607047C4340008DC2F00086B
:1032F00070B582B0044600230193234B1B686BB169
:10330000214B1B6843B1FFF7A8FF054605F006FCFB
:1033100070B92846FFF7A5FF02B070BD1B483AF010
:1033200059FF18B9184B194A1A60E9E701BEE7E7D7
:103330004FF47A7303FB04F4154BA3FB0434A40984
:10334000FFF7B9FF84420CD812480028E1D1019B55
:10335000A34200D901BE0198FFF786FF04F068FF81
:10336000D7E7261A012301AA3146074800683DF035
:10337000B7F8094B9842E8D1002301AA3146024828
:1033800000683DF0ADF8E0E7C42D0008C82D000846
:10339000D34D621000000E06051A020408B506F0AF
:1033A0003EF903680BB14068984708BD2DE9F04726
:1033B00084B00C9D002843D00F4690461C468146A1
:1033C000B5F5967F3ED313B113F0070F3ED184B30A
:1033D000002606F1F40003F063FF8246002837D090
:1033E00025F00705AD083CB3564403220021012017
:1033F00004F070FCC6F8E80000B3184BC6F8EC30D7
:10340000C6F8F0A016F0070F00D001BE0296019496
:103410009DF8343000930E9B2A464146384605F00D
:1034200099FCC9F80000864214D0A8B101BE002062
:1034300009E025F00706CCE70446D5E701BEDCE746
:10344000074800E0064804B0BDE8F0870548FAE701
:103450000548F8E70020F6E70020F4E701EFCDABE0
:1034600005000E0606000E0601000E0610B505F05A
:1034700079FB0446D0F8EC20074B9A4204D001BEF9
:10348000204605F049F9FBE700231A461946D0F813
:10349000E80003F0C9FFF3E701EFCDABE0B110B5F1
:1034A0000446006805F0A8FC246805F005FDD4F882
:1034B000EC200A4B9A4203D004F0BCFF002010BD60
:1034C0000023C4F8EC30D4F8E80004F021FDD4F86F
:1034D000F00003F0F5FEEFE70148704701EFCDABD8
:1034E00005000E06A8B110B504460368D3F8EC1029
:1034F000094A914203D000200023236010BD4FF001
:10350000FF31D3F8E80004F012FA2046FFF7C6FFB7
:10351000F2E70248704700BF01EFCDAB05000E0691
:1035200080B110B50446017131B1042004F025FCCE
:10353000206028B1002010BD012004F01EFCF7E738
:103540000148F8E70148704701000E0605000E0625
:1035500098B110B504460846FFF786FE0146237968
:103560002BB1206804F0B4FA28B1002010BD206807
:1035700004F0DDF9F8E70248F8E70248704700BFB9
:1035800000000E0605000E0688B108B503792BB1C0
:10359000006804F00EF840B1002008BD00231A4670
:1035A0001946006803F040FFF5E70248F5E70248D6
:1035B000704700BF02000E0605000E0628B108B5D0
:1035C000006804F0A5FC002008BD0148704700BF5A
:1035D00005000E0660B110B50B46114604461846AC
:1035E00004F0A8FB206008B1002010BD0148FCE7F2
:1035F0000148704701000E0605000E0630B583B085
:103600000023019330B30546EFF3058303B119BBE3
:103610000846FFF729FE0146EFF305849CB101AA95
:103620000021286804F0B4FBC0B1019BC3B14FF086
:10363000E0234FF08052C3F8042DBFF34F8FBFF348
:103640006F8F002403E0286804F071F950B1204620
:1036500003B030BD044CFAE7034CF8E7034CF6E73F
:103660000024F4E7014CF2E705000E0600000E0608
:1036700000B583B00023019310B3EFF3058393B13A
:1036800001A9006804F037F8012812D1019B83B129
:103690004FF0E0234FF08052C3F8042DBFF34F8F5B
:1036A000BFF36F8F05E000231A461946006803F048
:1036B000BBFE18B1002003B05DF804FB0148FAE737
:1036C0000148F8E702000E0605000E0628B108B50D
:1036D000006804F01DFC002008BD0148704700BFD1
:1036E00005000E0668B110B50B46114604460022CF
:1036F000184604F0EFFA206008B1002010BD02481F
:10370000FCE70248704700BF01000E0605000E06E8
:1037100060B330B583B00C46054649B3002301932E
:10372000EFF305839BB1002301AA006803F062FF59
:10373000012815D1019B9BB14FF0E0234FF080523F
:10374000C3F8042DBFF34F8FBFF36F8F08E010460F
:10375000FFF78AFD024600232146286803F064FE35
:1037600010B9044803B030BD0020FBE702487047A1
:103770000148F7E702000E0605000E0650B330B50B
:1037800083B00C46054639B300230193EFF305835C
:1037900093B101AA006804F0FBFA012814D1019B3F
:1037A00093B14FF0E0234FF08052C3F8042DBFF3E4
:1037B0004F8FBFF36F8F07E01046FFF755FD0246AE
:1037C0002146286804F004F810B9044803B030BD5D
:1037D0000020FBE7024870470148F7E702000E06A9
:1037E00005000E0628B108B5006804F091FB002022
:1037F00008BD0148704700BF05000E0628B32DE93B
:10380000F04182B00F4614461D468046FAB10820AA
:1038100056F0AAFE0646E0B10460456077B9012281
:103820000D4B0093334601210C4805F08BFEC8F880
:10383000000028B1002002B0BDE8F0810022EFE7CF
:10384000304656F099FE0648F5E7064870470548A9
:10385000F1E70348EFE700BF9D3300101081061029
:1038600001000E0605000E06F8B110B582B0044640
:103870000846FFF7F9FC0246002300930421206864
:1038800005F07CFE012803D068B1002002B010BD15
:10389000246805F019FB024600230093012120460D
:1038A00005F06CFEF0E70248F0E70248704700BF01
:1038B00002000E0605000E0678B100B583B00022A6
:1038C000009213460321006805F058FE18B100204D
:1038D00003B05DF804FB0248FAE70248704700BFF6
:1038E00002000E0605000E0658B110B50C4651B187
:1038F000006805F079FE003818BF01202070002014
:1039000010BD024870470148FAE700BF05000E06E7
:10391000B0B130B583B00546006805F080FE0446BE
:103920000022009213460521286805F027FE10B9F1
:10393000044803B030BD204656F01EFE0020F8E7D4
:103940000148704702000E0605000E0630B110B5A2
:10395000044605F0B9FA2060002010BD0048704709
:1039600005000E0608B5FFF77FFC04F009FE0020F5
:1039700008BD10B582B004464FF0FF3269462046BC
:10398000FFF7FCFE0028F7D1009B13B10198984780
:10399000F2E7FFF76BFD02B010BD000070B584B018
:1039A00004460E4601B100B901BEB36813B1736895
:1039B00003B901BE002323606360A360E360316943
:1039C00001B9102108222046FFF78CFE054680B978
:1039D0000123237304F10800F2686AB17368317837
:1039E000029401910093B3680749FFF7DFFC054695
:1039F00020B9284604B070BD044AEFE700232373C2
:103A00002046FFF7EFFEF4E7733900106415061047
:103A100070B582B00446FFF720FC0546237BCBB38C
:103A2000012B13D00026237B042B24D1237B93B3BB
:103A30002846FFF716FC2046FFF7D4FE064668BB73
:103A4000FFF70BFC05460023237324E003232373B5
:103A5000FFF707FC00220092019269462046FFF71B
:103A600057FE06460028DED0FFF7F7FB012323733D
:103A7000FFF7F7FB12E02846FFF7F3FB04F108001D
:103A8000FFF730FD064648B9FFF7E7FB054604237C
:103A90002373CBE700262846FFF7E3FB304602B04E
:103AA00070BD000070B582B00D461646044618B3CE
:103AB00025B3FFF7D2FB237B013BDBB2012B1FD8E1
:103AC00063680133636002232373FFF7CAFB009529
:103AD0000196002269462046FFF71AFE0546FFF7C9
:103AE000BCFB6368013B63600BB901232373FFF7E1
:103AF000B8FB284602B070BD01BED9E701BED8E7C9
:103B0000FFF7AFFB004DF4E720000E06401A7047A8
:103B10000238032803D8DFE800F00A040608002072
:103B200070475020704762207047702070474020D7
:103B3000704720B129B132B13BB10020704701205C
:103B4000704701207047012070470120704748B13D
:103B500051B10B7803B14AB10B694BB1CB684BB192
:103B600000207047012070470120704701207047F6
:103B700000207047012070472DE9F04768B10F46DB
:103B800015460646836E7BB1426DA2B1D1B198470E
:103B900080464FF00009CA462FE0264B264A40F2E5
:103BA0005E21264856F0A4FC254B234A40F25F21B3
:103BB000224856F09DFC234B1F4A4FF418711F48B2
:103BC00056F096FC204B1C4A40F261211B4856F0EF
:103BD0008FFC1E4B184A40F27E21184856F088FC94
:103BE000B36E98474146FFF791FF092805D94FF07A
:103BF000010902E04FF00109A2469DB1B9F1000FA1
:103C000010D1736D2A463946B06D9847041EF1DB1A
:103C1000E6DDB36E98478046AC42DAD82D1BA2444D
:103C20002744EAE7BAF1000F01DDC6F8708050467C
:103C3000BDE8F08770150610781806108415061078
:103C4000EC15061008160610341606104416061059
:103C50002DE9F04F83B0A8B10D468046036E8B422C
:103C600017D3D0F868B0BBF1000F19D0D0F850A02E
:103C7000BAF1000F1BD0C66D06B3D84701900027DC
:103C8000B94633E0244B254A40F2D621244856F069
:103C90002FFC244B214A40F2D721214856F028FC22
:103CA000214B1E4A4FF436711D4856F021FC1F4B24
:103CB0001A4A40F2D9211A4856F01AFC1C4B174AEE
:103CC00040F2DA21164856F013FC1A4B134A40F220
:103CD000FA21134856F00CFCD8470199FFF716FF5C
:103CE000092803D9012701E00127A14685B17FB941
:103CF0002A463146D8F85800D047041EF4DBEBDDE5
:103D0000D8470190AC42E0D82D1BA1442644EDE7F2
:103D1000484603B0BDE8F08F701506103C18061039
:103D2000841506106C160610EC1506109816061071
:103D3000C4160610EC1606102DE9F84F68B10E46B1
:103D400093468046D0F868A0BAF1000F0CD0046EFC
:103D5000D047814600273D4614E0164B164A40F2F4
:103D60002231164856F0C4FB154B134A40F223315A
:103D7000124856F0BDFB21464046FFF769FF8442DA
:103D800008D00127B5420ED26FB9731BA342F2D2FD
:103D90001C46F0E70544D0474946FFF7B7FE5845B3
:103DA000F0D30127EEE7B54202D00420BDE8F88F3A
:103DB0000720FBE77015061048180610841506103A
:103DC000EC15061010B584B004AC04E90E0058B12F
:103DD000C26D82B1039C026E944213D9069A2146A9
:103DE000FFF7AAFF04B010BD0B4B0C4A40F25F3145
:103DF0000B4856F07DFB0B4B084A4FF458710848AE
:103E000056F076FB2146FFF723FF844201D00420C1
:103E1000E8E70020E6E700BF701506105818061006
:103E200084150610C416061050280FD062280FD033
:103E300040280FD0702801D10320704708B5064BE9
:103E4000064A40F2C121064856F052FB0120704755
:103E5000022070470020704714170610FC17061048
:103E60008415061070B5A0B10C4615460646B9B1CA
:103E7000EAB1C16D11B323690BB1E3682BB32A46D4
:103E80003046FFF779FE85422FDC226922BB0020F5
:103E900070BD184B184A40F27951184856F028FB6B
:103EA000174B154A40F27A51144856F021FB154B36
:103EB000114A40F27B51114856F01AFB124B0E4A40
:103EC00040F27C510D4856F013FB104B0A4A40F269
:103ED0007D510A4856F00CFBE1683046FFF74CFE76
:103EE0002369834203DC0020D2E70320D0E70320CC
:103EF000CEE700BF70150610EC18061084150610EA
:103F00003C17061054170610C41606106417061046
:103F10002DE9F04F83B068B10F46934698460646A8
:103F20007BB1D0F868A0BAF1000F11D0D04781461C
:103F300000251FE02E4B2F4A4FF4B7612E4856F054
:103F4000D7FA2E4B2B4A40F2B9512B4856F0D0FAF3
:103F50002B4B284A40F2BA51274856F0C9FAD047AD
:103F60004946FFF7D3FDB84234BF00200120072C9B
:103F70000FD170B94246B16D306D01F0DEFA0446E2
:103F8000002FECD1012D94BF002001200135ADB2EE
:103F9000EDE7ACB9D0474946FFF7B8FD874206D9EF
:103FA0003F1A98F80030202B03D0052409E00027A1
:103FB000F7E7009798E80E003046FFF703FF044646
:103FC00054B12CB9BBF1000F02D00C9B1B786BB91C
:103FD000204603B0BDE8F08FF36DC8F804300C9AAA
:103FE0000021404601F05DFA0446EAE70524EFE7C8
:103FF000701506106818061084150610B017061004
:10400000EC150610F0B585B000238DF80F3048B1DF
:104010000D4606461046FFF77BFD044648B920468C
:1040200005B0F0BD144B154A40F2B131144856F0BA
:104030005FFAFFF7F9FE07462A46214606F15C00C3
:1040400001F0B0F908B10324E9E70422F16D30462C
:10405000FFF792FD042801D00324E0E7012386F84E
:1040600074300DF10F03009300233A462946304681
:1040700001F05DFD0446D2E7701506101418061015
:104080008415061030B583B0002301938DF80330FA
:1040900048B10546F9B10DF1030201A901F099FDFE
:1040A0000146002413E0134B134A4FF4C661134832
:1040B00056F01EFA9DF803202846FFF7A3FF04469A
:1040C0000DF1030201A9284601F083FD014669B103
:1040D000002CEFD00AE028242246002158F090FD61
:1040E00022460021281958F08BFD0024204603B0F9
:1040F00030BD00BF70150610241806108415061078
:10410000F0B587B000238DF8173020B30C46054674
:1041100041B3C76E6FB30878FFF786FE06460022EC
:1041200005A9204601F0BDF950B390B9BDF814308F
:10413000ADF808308DF810000023039302AA214641
:104140002846B8479DF81720BDF814102846FFF7F9
:1041500059FF07B0F0BD104B104A40F281411048A2
:1041600056F0C6F90F4B0D4A40F282410C4856F00A
:10417000BFF90D4B094A40F28341094856F0B8F99E
:104180000DF11703009301233246BDF814102846A1
:1041900001F0CDFCC9E700BF7015061084180610A9
:1041A00084150610B0170610C8170610F0B585B0B4
:1041B0000023ADF80E30A8B10C4615460646C1B135
:1041C000C76EEFB10B78B02B27D034D8702B04D04A
:1041D00021D8502B01D0622B19D121463046FFF750
:1041E0008FFF26E0284B294A4FF49961284856F062
:1041F0007FF9284B254A40F2C941254856F078F905
:10420000254B224A40F2CA41214856F071F9402B11
:10421000E3D005200DE0902B0AD100220DF10E0114
:10422000204601F03EF9F0B106281AD000231BE029
:10423000052005B0F0BDD02B0AD100220DF10E01F2
:10424000204601F02EF9034620B925B9012302E0EA
:104250000520EEE7002338B935B1002286F87C202E
:1042600002E0012300E00123002BE2D0BDF80E3074
:10427000ADF800308DF80800002501956A4621460A
:104280003046B8472846D4E770150610981806102F
:1042900084150610B0170610C8170610F0B585B0C3
:1042A0001D4600230393029360B10C461646074651
:1042B00079B1ADB102AA03A9204600F0FBFFB0B16D
:1042C00005B0F0BD0E4B0F4A4FF4CB610E4856F0CF
:1042D0000FF90E4B0B4A40F259610B4856F008F9A2
:1042E0000B4B084A40F25A61074856F001F9009515
:1042F00007F15C03039A3146204600F0F6FFDFE742
:1043000070150610F8180610841506103C170610D4
:10431000E817061070B58CB000238DF82F30ADF87B
:104320002C3030B30D46064651B3C36E7BB306AA9C
:104330000BA9284601F09BF8044678B3B4B90022D3
:10434000BDF82C30ADF80C3006AB04938DF814405A
:1043500022B9F36E03AA2946304698479DF82F20CC
:10436000BDF82C103046FFF74DFE044620460CB039
:1043700070BD184B184A40F20F41184856F0B8F873
:10438000174B154A4FF48261144856F0B1F8154B9B
:10439000114A40F21141114856F0AAF80DF12F03CD
:1043A00000939DF818300122BDF82C10304601F022
:1043B00067FB60B1092801D00446BFE79DF81810DB
:1043C000012001F04AFB8DF82F000122B8E70446D6
:1043D000B4E700BF70150610AC180610841506105F
:1043E000B0170610C817061028B3F8B50C461646C5
:1043F0001D46074609B3069B0BB312B31DB30B68EA
:104400001BB34B681BB38022002158F0F9FB07F166
:10441000500394E8070083E80700BE66FD6607F1D5
:104420005C03069A92E8030083E803000123A7F8DF
:104430006430002002E0012070470120F8BD012017
:10444000FCE70120FAE70120F8E70120F6E7012068
:10445000F4E72DE9F04389B00D4690469946109E49
:10446000002407940694039404940594074648B1E5
:10447000E1B1EEB106AB07AA4146284600F032FE94
:10448000044600E00124ACB1ECB134B374B34CB9D0
:10449000012387F866306B88A7F87630002387F809
:1044A0007C30BB67204609B0BDE8F0830124EAE711
:1044B0000124E8E707F15C03079A4146284600F02B
:1044C00047FE0446E0E7069AF96D3846FFF754FBCD
:1044D000069B8342D9DD0324D8E7009603AB2A78F4
:1044E00049463846FFF714FD0446CFE73178384691
:1044F000FFF7C8FD0446CAE72DE9F04184B0054640
:104500000E4617469846002403940294FFF711FBC9
:10451000044628B164B1B4B1204604B0BDE8F081CE
:1045200002AB03AA3946304600F038FE0446F1E7F4
:1045300005F15C030093039B42463946304600F088
:1045400044FE0446E7E7029AE96D2846FFF714FBAC
:10455000029B8342E0DD0324DEE770B584B00546AC
:104560000C461646002303938DF80B30FFF7EFFA45
:1045700068B108B922788AB920B9039A2146284639
:10458000FFF770FC08B9237893B904B070BD03AB92
:10459000324621462846FFF781FEEAE731462846A3
:1045A00001F046FA0928E7D1A378002BE5D1E3E72B
:1045B0000DF10B02009200223146284601F060FA0C
:1045C000E3E730B583B000230193054640B101A86D
:1045D00000F030FF04462CB154B1204603B030BD8A
:1045E0000124F8E705F15C0000F02BFF0446F3E737
:1045F000019AE96D2846FFF7BFFA019B834205DC6B
:104600002B6FAB67012385F87C30E6E70324E4E7F2
:1046100070B5E8B10546836E0BB398470646B5F80A
:1046200076404FF47A7303FB04F41CB3296FFFF751
:104630006DFAA04220D995F87C30BBB1A96F304605
:10464000FFF764FA41F28833984217D8002012E04D
:104650000B4B0C4A40F2E7310B4855F049FF0B4B2E
:10466000084A4FF47A71084855F042FF2846FFF790
:10467000A8FF00E0002070BD0020FCE70A20FAE758
:1046800070150610C418061084150610EC150610D7
:10469000F0B587B008B30E4617460546C36D1BB389
:1046A00003AA816D006D00F048FF0446072822D060
:1046B00050B36CB9EB6D04939DF80C3003F0F0032C
:1046C000302B2AD03A4603A92846FFF76FFD04464F
:1046D000072C28D0204607B0F0BD144B144A40F2F6
:1046E0000E51144855F004FF134B114A40F20F517C
:1046F000104855F0FDFE1FB90028E9D00446D8E760
:104700002846FFF785FFF7E7009606AB13E90E0092
:104710002846FFF757FB0446CBE703A92846FFF7D7
:10472000F9FD0446D4E70024D4E700BF7015061055
:10473000D418061084150610C41606102DE9F04191
:1047400084B005460E46174698460024039402940A
:10475000FFF7EFF9044628B164B1B4B1204604B0C4
:10476000BDE8F08102AB03AA3946304600F05FFD98
:104770000446F1E705F15C030093039B424639468A
:10478000304600F06BFD0446E7E7029AE96D2846E3
:10479000FFF7F2F9029B8342E0DD0324DEE730B548
:1047A00083B000230193054660B101A800F025FE07
:1047B00004464CB174B114B9002385F86630204624
:1047C00003B030BD0124F4E705F15C0000F01CFEED
:1047D0000446EFE7019AE96D2846FFF7CDF9019B02
:1047E0008342E8DD0324EAE72DE9F0410F4606465F
:1047F000F0B1836E03B3C26D12B3984780460025B3
:1048000086F874503C4600E03C1A75B901222146F6
:104810003046FFF73DFF05460028F6D1B36E9847B6
:104820004146FFF773F98742EED82846BDE8F0818C
:104830004FF000080125E5E74FF000080125E1E70A
:104840004FF000080125DDE7034668B1B0F86400C9
:104850004FF6FF72904203D0421CA3F864207047C9
:104860000122A3F86420704700207047B0B10346CE
:10487000B1B1BAB10078902801D0012070475868D2
:1048800090B110B49C68022C10D9023008609B686B
:10489000023B136000205DF8044B70470120704715
:1048A0000120704701207047012070470120F2E786
:1048B0007F2807D9B0F5804F06D3B0F5001F05D289
:1048C0000320704701207047022070470420704782
:1048D0002DE9F04182B007460E4600248DF80740CE
:1048E000A046012512E09DF8073003F07F0305FB89
:1048F0000344ED0108F1010801E04FF08054B4F1E8
:10490000805F10D09DF90730002B0CDAB5F5001F41
:10491000F3D801220DF107013046B8470128E2D053
:104920004FF08054EBE7B4F1805F06D02046FFF7EC
:10493000BFFF804501D04FF08054204602B0BDE853
:10494000F08100F0F003602B22D006D9B02B28D0E4
:1049500014D9D02B1AD000207047402B1DD003D97A
:10496000502B09D000207047202B18D0302B01D0BD
:10497000002070470120704701207047702B12D033
:10498000902B01D000207047012070470120704714
:1049900010F0020F09D1002070470120704701205C
:1049A000704701207047012070470120704719B9F6
:1049B000824206D8084670470232824203D800205D
:1049C0007047052070470520704738B5049D7DB1BC
:1049D0001C4678B12B687BB181B18AB12046FFF7C4
:1049E00067FF204401306B6883420BD3002000E056
:1049F000012038BD0120FCE70120FAE70120F8E79B
:104A00000120F6E70220F4E708B560B90A4B0B4A2B
:104A100040F2D9110A4855F06BFD42F0800200F8CF
:104A2000012B7F2B06D901F07F020B46C9097F2B92
:104A3000F5D9F2E708BD00BF0C190610681D061075
:104A4000241906102DE9F04190469DF8182050B128
:104A50001F46864671B1B8F1000F12D0C3B10225CE
:104A6000002006461DE0214B214A40F2F531214845
:104A700055F03EFD204B1E4A40F2F6311D4855F0E0
:104A800037FD1E4B1A4A40F2F7311A4855F030FDF7
:104A90001B4B174A4FF47E71164855F029FD01262D
:104AA0000130884211D200EB400C0EEB8C0CBCF8AC
:104AB000084063199D1C02B9DD1C002CEFD0DCF806
:104AC0000430002BECD10126EAE7B5F1805F09D272
:104AD0004EB9C8F800502846FFF7EAFE01300544F9
:104AE0003D6000E001263046BDE8F08194190610D3
:104AF000381D061024190610B0190610C819061022
:104B0000E41906102DE9F041E8B10F4616460346B8
:104B100001B332B30289901C197801B1101D174CF2
:104B2000241AD3F81080A04522D808EB00052846A7
:104B3000FFF7BEFE241AA0451DD83D600130284471
:104B40003060012015E00E4B0E4A40F21E210E4847
:104B500055F0CEFC0D4B0B4A40F21F210A4855F090
:104B6000C7FC0B4B074A4FF40871074855F0C0FCCF
:104B70000020BDE8F0810020FBE700BFFEFFFF0F33
:104B80003C170610281E061024190610C819061016
:104B9000E419061008B581B10B4610F0040F13D0CC
:104BA00010F0020F19D102220A7000F001025A70AF
:104BB000C0F3C0009870002008BD094B094A40F2BC
:104BC0004B31094855F094FC10F0020F02D001223D
:104BD0000A70EAE700220A70E7E70520ECE700BF69
:104BE0003C170610E81D061024190610F8B5002819
:104BF00030D00F4614460646002932D0002A37D05E
:104C00004568002D3BD00078114600F00F00FFF7FB
:104C1000C1FF20B903222178B068FFF7C8FE48B968
:104C20002B786A7842EA0322228102322178B06826
:104C3000FFF7BDFE50BB023565602389EA18217875
:104C400029B3E95C537843EA01233B800232F3B98C
:104C500005202AE0154B164A4FF49B61154855F084
:104C600047FC154B124A40F2D941124855F040FC1E
:104C7000124B0F4A40F2DA410E4855F039FC104B06
:104C80000B4A40F2DB410B4855F032FC002260B980
:104C9000B36821895B1A023B2361217809B1023B89
:104CA0002361236903B90022E260F8BDB017061042
:104CB000FC1D061024190610F81906103C170610E2
:104CC0000C1A061010B586B08646EC46094C0FCC7F
:104CD000ACE80F0094E803008CE80300BEF1050F78
:104CE00001D806B010BD044B044A40F28B31044891
:104CF00055F0FEFBF41C0610341A0610C01D0610F9
:104D00002419061010B538B169B142688368022BC6
:104D100010D00524204610BD154B164A40F2A13193
:104D2000154855F0E5FB154B124A40F2A2311248E6
:104D300055F0DEFB137833F0010001D00524E9E7DC
:104D400013F0010F05D001230B7053781BB105241C
:104D5000E0E700230B705478052C01D90524D9E72E
:104D60002046FFF7AFFF002CD4D00624D2E700BFC7
:104D7000481A0610D41D0610241906105C1A0610D5
:104D800008B521B184468E46002318460AE00A4B36
:104D90000A4A40F241410A4855F0AAFB802A08D14C
:104DA00006200133634505D21EF80320022AF5D8F8
:104DB000F7E7052008BD00BF741A0610981D0610FD
:104DC0002419061008B538B1034661B180685B68E4
:104DD00002280FD8052008BD0C4B0D4A40F27A413D
:104DE0000C4855F085FB0C4B094A40F27B410948C1
:104DF00055F07EFB93F800C05A7842EA0C220A80F4
:104E0000991C0238FFF7BCFFE5E700BF8C1A0610BB
:104E1000AC1D0610241906109C1A061008B518B10E
:104E2000836843B9002008BD044B054A40F256513F
:104E3000044855F05DFB0520F5E700BFB81A0610E1
:104E4000241D06102419061008B528B159B182682E
:104E5000022A0FD0052008BD0C4B0D4A40F23351F9
:104E60000C4855F045FB0C4B094A40F234510948B7
:104E700055F03EFB43681A785B7843EA02230B80C7
:104E80000BB10020E7E70520E5E700BFCC1A0610CC
:104E90000C1D0610241906109C1A061038B558B1BE
:104EA0001446120A02704470851C19B12246284625
:104EB00058F0EEFE281938BD034B044A40F2FD11AC
:104EC000034855F015FB00BF0C190610581D0610BD
:104ED0002419061070B5002850D00E4611461D4604
:104EE0000446002B51D01868002855D0102300F834
:104EF000013BFFF789FD04223249FFF7CFFF04236E
:104F00000370237803B10223E2680AB143F08003FF
:104F100062690AB143F04003002E4AD043F0040214
:104F2000317801293FD0022940D0737813B142F083
:104F30002002D2B2427063881B0A8370A378C370C8
:104F4000228961680430FFF7A9FF3EB13289716898
:104F5000FFF7A4FF328AF168FFF7A0FFE16811B103
:104F6000228AFFF79BFF616911B1228BFFF796FF41
:104F70002B68C01A6B6898421DD870BD124B134A3B
:104F800040F26E51124855F0B3FA124B0F4A40F2FC
:104F90006F510F4855F0ACFA0F4B0C4A4FF4AE610D
:104FA0000B4855F0A5FA43F00C02BEE743F014029B
:104FB000BBE71A46BEE7094B044A4FF4BB610448FD
:104FC00055F096FA2C1B0610DC1A0610801D0610F0
:104FD00024190610F41A06100C1B0610341B0610B8
:104FE0002DE9F0419DF81880002836D017461E465E
:104FF0000546002B38D0186800283CD02B780BB120
:10500000002A3FD0AA780AB1002B42D0012B47D00A
:10501000022B47D030236C780CB143F001030AB166
:1050200043F0080300F8013BFFF7EEFC2A896968AA
:10503000FFF734FF04462B781BB13B0A037047701F
:1050400002342A6912B1B8F1000F2DD13368E41A85
:1050500073689C422FD8BDE8F0811A4B1A4A40F27F
:1050600072211A4855F044FA194B174A40F273213D
:10507000164855F03DFA174B134A4FF41D7113486B
:1050800055F036FA144B104A40F276210F4855F08D
:105090002FFA124B0C4A4FF41E710C4855F028FAA7
:1050A0003223B8E73423B6E7E968204658F0F0FD2C
:1050B0002B691C44CAE70A4B034A40F2C12103484A
:1050C00055F016FA3C170610101E0610241906108B
:1050D000F41A06100C1B06107C1B0610BC1B0610D5
:1050E000341B061040B370B515461C4603462AB360
:1050F00034B3068936B3406830B319B10869B0F5E6
:10510000803F23D20C3621B10A8909690A4432440E
:10511000161DDA6812B11A8A3244961C5A6912B105
:105120001B8B33449E1C3046FFF7C2FB01303044DA
:105130002E602060002002E001207047012070BD39
:105140000120FCE70120FAE70120F8E70120F6E75B
:10515000E0B1F8B50E4615461C460746C3B11B68BC
:10516000C3B109B14B68BBB12846FFF7A1FB284486
:1051700001306368834201D202200AE023462A46B6
:1051800031463846FFF7A6FE002002E001207047B6
:105190000120F8BD0120FCE70120FAE778B1844640
:1051A0007AB183B109B90120704700B583B00020FE
:1051B00000906046FFF746FC03B05DF804FB012059
:1051C000704701207047012070472DE9F04383B0FC
:1051D00004460D46904699460A9F0097FFF7F5FB57
:1051E000064618B1304603B0BDE8F0833868822324
:1051F00000F8013B4946FFF707FC4FEA182303700C
:1052000080F80180023000270EE007EB47034FEAE9
:10521000830804EB83031A895968FFF73FFE14F8EB
:10522000083000F8013B0137AF42EED3DAE778B13E
:1052300084467AB183B109B90120704700B583B0C3
:10524000012000906046FFF7FDFB03B05DF804FB12
:105250000120704701207047012070472DE9F0437D
:1052600083B006460D46904699460A9C0094FFF787
:10527000ACFB074618B1384603B0BDE8F0832068A0
:10528000A22300F8013B4946FFF7BEFB4FEA182373
:10529000037080F801800230002408E004EB44032E
:1052A00006EB83031A895968FFF7F8FD0134AC4215
:1052B000F4D3E0E778B108B5034671B17AB140683C
:1052C00078B1188908B9012008E01846FFF71AFCE0
:1052D00048B1002002E001207047012008BD0120F4
:1052E000FCE70120FAE70120F8E72DE9F04383B05D
:1052F00004460F461646984613B348B30A9B5BB361
:10530000D8F8003063B3436873B3038983B3037879
:1053100003B189B3236803F0FF13B3F5803F2FD0A7
:105320003046FFF7C5FA00EB06092369A9EB03092C
:1053300009F10109D8F804304B4531D3002502E0CA
:105340004FF000090125FDB1284603B0BDE8F08308
:105350004FF000090125F6E74FF000090125F2E7BB
:105360004FF000090125EEE74FF000090125EAE7BB
:105370004FF000090125E6E74FF000090125E2E7BB
:105380004FF000090125DEE70023009343463A462B
:1053900031462046FFF724FE0A9BC3F80090D3E76E
:1053A0000225D1E7F8B103460068F0B110B45C689B
:1053B000032C1CD9FAB162290AD005D8402907D09C
:1053C000502905D0012013E0702901D001200FE001
:1053D00001701968022048701968100A88701B68EB
:1053E000DA70002004E0012070470120704702209D
:1053F0005DF8044B70470120FAE718B10222026001
:105400000020704701207047034668B102686AB106
:105410004268012A0CD9002058B91A68E02111709D
:105420001B6800225A7070470120F5E70120F3E75E
:105430000220704718B1022202600020704701204C
:105440007047034668B102686AB14268012A0CD904
:10545000002058B91A68C02111701B6800225A70C8
:1054600070470120F5E70120F3E70220704780B183
:1054700008B5034679B182B1007800F0F000302819
:1054800001D0012008BD586848B11846FFF7AEFBAF
:10549000F8E7012070470120F4E70120F2E701203E
:1054A000F0E7002847D008B5844669B19AB1DCF826
:1054B0000430B3B19CF80030902B38D028D8202B82
:1054C00030D014D2052008BD0378202BEED0D02B8D
:1054D000ECD00120F7E79CF80030202BE7D1012029
:1054E000F1E79CF80030D02BE4D00120EBE7622BF1
:1054F00008D003D9702B05D00520E4E7402B01D05C
:10550000502B03D16046FFF79FFCDCE70520DAE76C
:10551000B02BF7D0D02B03D16046FFF77FFCD2E74A
:105520000520D0E711466046FFF7ECFBCBE760466D
:10553000FFF748FCC7E70120704732B370B5044657
:105540000D461646012231462846A047034601284B
:1055500007D00020012800D0ABB1012800D00420E2
:1055600070BD3078FFF7EDF908B90520F8E7294656
:105570002046FFF7ADF9B060B0F1805F01D00020A8
:10558000EEE70520ECE70720EAE7002301200128E9
:1055900000D023B1012801D00420704770470720B4
:1055A000704707282AD8DFE800F0040F29292929A5
:1055B0001F24012A01D000207047881EC0B2012894
:1055C0008CBF002001207047012B03D0022B06D096
:1055D00000207047062914BF0020012070470729CA
:1055E00014BF002001207047062914BF00200120AD
:1055F0007047072914BF0020012070470020704722
:105600000238072836D8DFE800F0040929190424F5
:105610000E2E0A2914BF002001207047082914BF4C
:10562000002001207047052906D0082902D000215A
:10563000084670470121FBE70121F9E70A2906D056
:10564000052902D00021084670470121FBE701210E
:10565000F9E7042914BF002001207047092914BF6D
:105660000020012070470939C9B201298CBF0020F0
:10567000012070470020704702280BD003D903286F
:1056800003D000207047012808D8012914BF00204A
:1056900001207047B1FA81F040097047002070473F
:1056A00038B518B102460A20002317E0134B144AFC
:1056B00040F2C511134854F01BFF0A280DD002EB2D
:1056C000800522F820409CF80240AC709CF8034012
:1056D000EC70002422F80E40013001338B420BD2D3
:1056E0004FEA830E02EB830C32F82340002CE4D106
:1056F0000A28F2D11846F0E738BD00BF441E061054
:10570000D01F0610541E06102DE9F84372B105464D
:105710000F469946904683B101F18043013B30F832
:1057200023308BB97A1E3B46002614E0184B194AE9
:105730004FF4F971184854F0DBFE184B154A40F24B
:10574000F311154854F0D4FEFFF7AAFFEAE74445E9
:105750001AD00126013A002A07DB35F82240002C36
:10576000F5D1002EF6D11346F4E70220BB4209D250
:1057700005EB830225F8238082F802909DF8203003
:10578000D3700020BDE8F8833B460920EEE700BF58
:10579000C01E0610E01F0610541E0610E41E061060
:1057A00038B5049D6AB18446964600202870884228
:1057B00012D20CEB80043CF82020724508D0013056
:1057C000F5E7064B064A4FF4D671064854F090FEB2
:1057D000A2781A70E3782B7038BD00BFC01E061087
:1057E000C01F0610541E061008B520B153B1002387
:1057F00020F8213008BD064B064A40F22F2106480A
:1058000054F076FE00EB810C8CF80320F2E700BF29
:10581000441E06109C1F0610541E06102DE9F0476A
:1058200082B09DF828509DF82C709DF8306090B1A2
:10583000894690461C468246A2B1D5B12B462246E7
:1058400031463846FFF7ADFE58B3012C18D0B742A9
:105850001FD1002026E0154B154A4FF43971154829
:1058600054F046FE144B124A40F2E521114854F020
:105870003FFE124B0E4A40F2E6210E4854F038FE2D
:1058800000962B4642460A210AF12800FFF73CFF0A
:1058900008E00023324649465046FFF7A5FF0020A6
:1058A00000E0082002B0BDE8F08700BFF41E06103B
:1058B000AC1F0610541E0610C01E0610E41E061073
:1058C0002DE9F04383B09DF8284090B10F469046F3
:1058D0001D4681460A2C15D0042C11D000231E46EB
:1058E00021462846FFF78CFE08B3AC420CD10020BD
:1058F0001EE0114B114A40F2A721114854F0F8FD67
:105900000123ECE70123EAE73346224639464846BD
:10591000FFF76AFF042C01D0002009E00423009364
:10592000022342460A214846FFF7EEFE00E0082027
:1059300003B0BDE8F08300BF441E06108C1F0610A4
:10594000541E061010B5D0B10446F9B12AB340F286
:10595000D223194228D021F4347333F002032AD120
:105960001368092B33D804EB830C9CF803E0012067
:1059700000FA0EF0884325D001331360F0E7154B91
:10598000154A40F24721154854F0B2FD144B124A13
:105990004FF41271114854F0ABFD124B0E4A40F215
:1059A00049210E4854F0A4FD0F4B0B4A40F25321FD
:1059B0000A4854F09DFD0D4B074A4FF415710748F6
:1059C00054F096FDBCF800000133136000E00020A5
:1059D00010BD00BFF41E0610801F0610541E0610D6
:1059E0000C1F0610201F0610301F0610581F06102F
:1059F000022A14BF00230123032803D8DFE800F0A4
:105A0000040A0D1000200CE0012A14BF002301231A
:105A10000A2006E041B9082003E039B9092000E076
:105A20000A2003B9002070470420FAE70520F8E7B0
:105A300010B582B0044610465AB149B15CB1012399
:105A4000009313460A460A212046FFF75DFE00E058
:105A5000012002B010BD0120FBE7012906D0022978
:105A600007D009B1002070470A20704720B90620EE
:105A7000704718B90720704702207047032070470D
:105A80002DE9F04387B00E4615461C4600238DF8DD
:105A900017308DF81630814610B30E9B43B32CB9E6
:105AA0004FF00A0883F8008020461CE021B31AB1A9
:105AB0004FF00A08002016E00DF1170300930DF1D6
:105AC00016030A460A21FFF76BFE80460A2817D004
:105AD0009DF81630A34201D0012004E0284602E0E0
:105AE0004FF00A08012004B160B107B0BDE8F083AF
:105AF0004FF00A080120F6E74FF00A080120F2E70C
:105B00000120F0E721462846FFF7A7FF074602904D
:105B10009DF81730019300942B4632464146484683
:105B2000FFF77CFE0028E0D10E9B1F70DDE72DE91A
:105B3000F04184B004460F4615461E464FF000085B
:105B40008DF80F8019461046FFF796FD8DF80E80F0
:105B50009CB10A9BD3B1F7B1032D21D800B92834E9
:105B60000DF10F0300930DF10E033A460A21204672
:105B7000FFF716FE8046052002E001204FF00A08DC
:105B8000B8F1090F11D904B0BDE8F0810A9C0120D9
:105B90004FF00A08F4E7012000244FF00A08EFE76D
:105BA000012000244FF00A08EAE79DF80E20314654
:105BB0002846FFF71DFF054600909DF80F303A4636
:105BC00041462046FFF77CFE0028DCD10A9B1D7071
:105BD000D9E760B110B5144659B162B10A464FF425
:105BE0000471FFF7AFFE38B10423237004E00020F6
:105BF0007047002000E0002010BD30B108B531B181
:105C00000A46C221FFF79EFE08BD00207047002013
:105C1000FAE708B50B680BB148689847002008BD43
:105C200008B544F067FB08BD08B545F013FB08BD97
:105C30002DE9F04188B0984600238DF81F300028E8
:105C400000F0C8800D4616460446002900F0C480C6
:105C500002930393049305930693036080F8303016
:105C6000C36143608360C36003614361836102AACF
:105C70000421286845F020FA0746A8B187B194F8B6
:105C80003030002B40F0A080E06918B145F0F4FC02
:105C90000023E361206818B145F046FA0023236031
:105CA000384608B0BDE8F081AB88A38002AF0FCFC3
:105CB000A060E160226163613868A061002E60D05D
:105CC000306910B17169002937D1F06930B1316A9A
:105CD00021B1726A12B1B36A002B47D12346032265
:105CE0000121022044F0C8FB07460028C6D1E36921
:105CF0004BB1042200920D220321206844F040FCA5
:105D000007460028BAD1012300930DF11F0310228A
:105D10000321206844F034FC07460028AED1B36864
:105D2000002B38D0F268013A00920E22032120683D
:105D300044F026FC074670B3A0E7013945F006FCA5
:105D4000074600289AD1012384F83030337E1BB9EE
:105D500002238DF81F30B8E7012B03D001238DF803
:105D60001F30B2E700238DF81F30AEE704F11C07A7
:105D70000097013B013945F025FC07460028ADD0CE
:105D80007CE7234601221146022044F075FB0746BA
:105D900000287FF473AF039BE36004232372AB8876
:105DA000A380B8F1000F05D0D8F800302362D8F8EE
:105DB000043063620E9B002B3FF460AF1B68A3624C
:105DC0000E9B5B68E36259E745F0B6FB002384F85D
:105DD000303059E7014F63E7004F61E702002A08BE
:105DE00010B586B003910292002844D004460146C3
:105DF00051F8040B182244F047FF034610B118462F
:105E000006B010BD0423009302AB002201212068DC
:105E100044F0B6FB03460028F1D10423009303AB02
:105E200001221146206844F0ABFB03460028E6D16E
:105E3000226A7AB1114B049304F1200305930823DD
:105E4000009304AB09220121206844F099FB03462A
:105E50000028D4D1A26A002AD1D0084B049304F1BF
:105E6000280305930822009204AB0121206844F026
:105E700087FB0346C3E7024BC1E700BF135C00107A
:105E800002002A0830B108B5006828B1002144F0AA
:105E9000ABFF08BD014870470020FAE702002A085E
:105EA000D8B110B50446C06920B145F0E5FB60B932
:105EB000E06100E0002094F830303BB9236823B162
:105EC000184645F031F90023236010BD45F034FB3E
:105ED0000028FAD184F83000F0E70148704700BF8D
:105EE00002002A0800B585B04FF0FF330393A0B13C
:105EF000B1B103AB00930023006845F069F828B105
:105F0000094A904206D04FF0FF330393039805B03F
:105F10005DF804FB00230393F8E74FF0FF30F6E74A
:105F20004FF0FF30F3E700BF0B002A0800B585B043
:105F30004FF0FF330393A0B1B1B103AB0093002343
:105F4000006844F0D7FF28B1094A904206D04FF0CC
:105F5000FF330393039805B05DF804FB002303931C
:105F6000F8E74FF0FF30F6E74FF0FF30F3E700BF00
:105F70000B002A0800B583B00023019301A8FDF7A8
:105F8000E5FC18B9019803B05DF804FB002001900E
:105F9000F9E708B5FDF7E6FC08BD00002DE9F04380
:105FA00085B0054688461746994611F0030419D076
:105FB00088B1244903AB009320230A4628683CF0AB
:105FC000FDFD00B101BEC4F10404224603A9404610
:105FD00056F0FCFD06E001BEEBE701BE09E0039BC5
:105FE00033600434F81EA0420FD908EB0406002DDC
:105FF000F3D0144903AB009320230A4628683CF0F1
:10600000DDFD0028EBD001BEE9E7BC4205D3C9F8AD
:106010000040002005B0BDE8F0838DB1094903AB15
:10602000009320230A4628683CF0C8FD00B101BE59
:106030003A1B03A908EB040056F0C8FD3C46E6E70E
:1060400001BEEBE7B71DC10470B584B005460E462E
:1060500014460023039301A83AF0C7FA68B903ABCA
:106060003246294601A8FFF799FF039B236001A848
:106070003AF0C6FA002004B070BD4FF0FF30FAE7E6
:1060800010B582B0002400940CE0BDF80430BDF8D7
:10609000062002FB03F3094CA4FB0324E40D084A89
:1060A00002FB14343CB96A4604210DEB0100FFF7F2
:1060B000CBFF0028E9D0204602B010BD3F96BFD6E6
:1060C0007F96980010B5044600230360FFF752FF47
:1060D00054F0F0FAFFF7D4FF054BA3FB002323F0A5
:1060E000030202EB9303C31A0133636010BD00BFC8
:1060F000CDCCCCCCF8B110B504460368032B16D830
:10610000FFF7BEFF6368B0FBF3F203FB1200FFF77B
:1061100040FF23680133236063683F2B03D85B0093
:106120006360002006E080236360002002E0FFF748
:10613000C9FF012010BD01207047704708B5034614
:10614000084A1068084A121A9A4203DB0344054AB7
:10615000136008BD57F0F6FC0C2303604FF0FF30CE
:10616000F7E700BF7023000800E80F0808B502F049
:10617000A3FE08BD08B502F05DF908BD08B502F040
:106180009BFE08BD08B502F055F908BD08B502F040
:1061900093FE08BD08B502F04DF908BD30B58DB0CD
:1061A000044600220023CDE90023FFF7EFFF1F4B39
:1061B0001B6893B103A91D4B186838F0C3F9054655
:1061C00008B3FFF7E7FF25BB1CB1DDE90023C4E9F5
:1061D0000023DDE900010DB030BD154838F0A8F905
:1061E000054600B101BE15B1002DEAD1E2E7104D20
:1061F0000E4B1D60684656F083FD0146284638F078
:1062000049FA0546F0E703A856F064FFCDE900011E
:10621000D7E72CB14FF0FF324FF0FF33C4E9002332
:106220004FF0FF304FF0FF31D5E700BFAC3500082D
:10623000B03500080CB42DE9F04F89B04F4B1B78F6
:10624000002B00F08B8004460D46052800D9002461
:106250004A4BD3F81C34002B00F08280474B234478
:106260001B7B002B7ED0AB42C0F08380434BD3F826
:106270002034002B69D007A898470646002872D121
:10628000079B3F4FA7FB0327BA094FF47A7101FB25
:106290001238174607923B4BA3FB021252091146D4
:1062A000C2EB0212A7EB82070791A3FB01235B0954
:1062B0009A46C3EB0313A1EB8309334BA3FB0A23D9
:1062C0001B0903EB4303AAEBC30A4FF0FF312F482E
:1062D000FDF73EF9064600284DD1DFF8A0B0CDF815
:1062E0000C800297CDF80490CDF800A0BBF81834CC
:1062F000274A4FF480610BF1180056F0EFFA13AB08
:10630000059300F11807129AC0F580610BEB0700A6
:1063100056F0A8FBB0F1FF3F02D0B0F5806F03DB71
:10632000164B002283F81724144FD7F81C3407F1BA
:106330001802294620469847B7F818340133A7F8C1
:106340001834381DFDF720F90DE006A8FDF7FEFA18
:106350000A4B5A69069B9B1A079391E7022602E0B3
:10636000002600E00026304609B0BDE8F04F02B03C
:1063700070470026F7E70226F5E700BFE035000882
:10638000D34D621089888888ABAAAAAAE435000890
:10639000EC1F061010B44C084FEA111CB1F5807FB9
:1063A00002D0B1F5007F0AD11C60029B1C60106016
:1063B0006044019B186000205DF8044B70476FF04B
:1063C0001F00F9E730B5CB7991F806E04FEA0E4EA1
:1063D0004EEA036E4B794EEA032E0B79CC788A781D
:1063E000120442EA04624C7842EA04224EEA030EA6
:1063F0000B781A43CB7B91F80EC04FEA0C4C4CEA59
:10640000036C4B7B4CEA032C0C7BCD7A8B7A1B0400
:1064100043EA05634D7A43EA05234CEA0404097A0A
:106420000B4392184EEB0E014FEADC7C4FEACC0C8A
:10643000CCF1080C872545FA0CFC82EA0C0281EAB3
:10644000EC71DB18644143EADE7E0D0EC571C1F3C9
:1064500007458571C1F3072545710171110EC170A2
:10646000C2F307418170C2F3072141700270220E0E
:10647000C273C4F307428273C4F3072242730473E6
:106480001A0EC272C3F307428272C3F30723437228
